{
  "_format": "hh-sol-artifact-1",
  "contractName": "ZhongCaoCommunity",
  "sourceName": "contracts/ZhongCaoCommunity.sol",
  "abi": [
    {
      "inputs": [],
      "stateMutability": "nonpayable",
      "type": "constructor"
    },
    {
      "inputs": [],
      "name": "EnforcedPause",
      "type": "error"
    },
    {
      "inputs": [],
      "name": "ExpectedPause",
      "type": "error"
    },
    {
      "inputs": [
        {
          "internalType": "address",
          "name": "owner",
          "type": "address"
        }
      ],
      "name": "OwnableInvalidOwner",
      "type": "error"
    },
    {
      "inputs": [
        {
          "internalType": "address",
          "name": "account",
          "type": "address"
        }
      ],
      "name": "OwnableUnauthorizedAccount",
      "type": "error"
    },
    {
      "inputs": [],
      "name": "ReentrancyGuardReentrantCall",
      "type": "error"
    },
    {
      "anonymous": false,
      "inputs": [
        {
          "indexed": true,
          "internalType": "uint256",
          "name": "taskId",
          "type": "uint256"
        },
        {
          "indexed": false,
          "internalType": "uint256",
          "name": "amount",
          "type": "uint256"
        },
        {
          "indexed": true,
          "internalType": "address",
          "name": "contributor",
          "type": "address"
        }
      ],
      "name": "BonusPoolAdded",
      "type": "event"
    },
    {
      "anonymous": false,
      "inputs": [
        {
          "indexed": true,
          "internalType": "address",
          "name": "previousOwner",
          "type": "address"
        },
        {
          "indexed": true,
          "internalType": "address",
          "name": "newOwner",
          "type": "address"
        }
      ],
      "name": "OwnershipTransferred",
      "type": "event"
    },
    {
      "anonymous": false,
      "inputs": [
        {
          "indexed": false,
          "internalType": "address",
          "name": "account",
          "type": "address"
        }
      ],
      "name": "Paused",
      "type": "event"
    },
    {
      "anonymous": false,
      "inputs": [
        {
          "indexed": true,
          "internalType": "uint256",
          "name": "purchaseId",
          "type": "uint256"
        },
        {
          "indexed": true,
          "internalType": "uint256",
          "name": "taskId",
          "type": "uint256"
        },
        {
          "indexed": true,
          "internalType": "uint256",
          "name": "referralId",
          "type": "uint256"
        },
        {
          "indexed": false,
          "internalType": "address",
          "name": "buyer",
          "type": "address"
        },
        {
          "indexed": false,
          "internalType": "address",
          "name": "promoter",
          "type": "address"
        },
        {
          "indexed": false,
          "internalType": "address",
          "name": "advertiser",
          "type": "address"
        },
        {
          "indexed": false,
          "internalType": "uint256",
          "name": "productPrice",
          "type": "uint256"
        },
        {
          "indexed": false,
          "internalType": "uint256",
          "name": "commissionAmount",
          "type": "uint256"
        }
      ],
      "name": "PurchaseMade",
      "type": "event"
    },
    {
      "anonymous": false,
      "inputs": [
        {
          "indexed": true,
          "internalType": "uint256",
          "name": "referralId",
          "type": "uint256"
        },
        {
          "indexed": true,
          "internalType": "uint256",
          "name": "taskId",
          "type": "uint256"
        },
        {
          "indexed": true,
          "internalType": "address",
          "name": "promoter",
          "type": "address"
        },
        {
          "indexed": false,
          "internalType": "string",
          "name": "refCode",
          "type": "string"
        }
      ],
      "name": "ReferralCreated",
      "type": "event"
    },
    {
      "anonymous": false,
      "inputs": [
        {
          "indexed": true,
          "internalType": "uint256",
          "name": "taskId",
          "type": "uint256"
        },
        {
          "indexed": true,
          "internalType": "address",
          "name": "advertiser",
          "type": "address"
        },
        {
          "indexed": false,
          "internalType": "string",
          "name": "title",
          "type": "string"
        },
        {
          "indexed": false,
          "internalType": "uint256",
          "name": "productPrice",
          "type": "uint256"
        },
        {
          "indexed": false,
          "internalType": "uint256",
          "name": "commissionRate",
          "type": "uint256"
        },
        {
          "indexed": false,
          "internalType": "uint256",
          "name": "bonusPool",
          "type": "uint256"
        }
      ],
      "name": "TaskCreated",
      "type": "event"
    },
    {
      "anonymous": false,
      "inputs": [
        {
          "indexed": true,
          "internalType": "uint256",
          "name": "taskId",
          "type": "uint256"
        },
        {
          "indexed": true,
          "internalType": "address",
          "name": "advertiser",
          "type": "address"
        }
      ],
      "name": "TaskDeactivated",
      "type": "event"
    },
    {
      "anonymous": false,
      "inputs": [
        {
          "indexed": false,
          "internalType": "address",
          "name": "account",
          "type": "address"
        }
      ],
      "name": "Unpaused",
      "type": "event"
    },
    {
      "inputs": [
        {
          "internalType": "uint256",
          "name": "_taskId",
          "type": "uint256"
        }
      ],
      "name": "acceptTask",
      "outputs": [],
      "stateMutability": "nonpayable",
      "type": "function"
    },
    {
      "inputs": [
        {
          "internalType": "uint256",
          "name": "_taskId",
          "type": "uint256"
        }
      ],
      "name": "addBonusPool",
      "outputs": [],
      "stateMutability": "payable",
      "type": "function"
    },
    {
      "inputs": [
        {
          "internalType": "address",
          "name": "",
          "type": "address"
        },
        {
          "internalType": "uint256",
          "name": "",
          "type": "uint256"
        }
      ],
      "name": "advertiserTasks",
      "outputs": [
        {
          "internalType": "uint256",
          "name": "",
          "type": "uint256"
        }
      ],
      "stateMutability": "view",
      "type": "function"
    },
    {
      "inputs": [
        {
          "internalType": "string",
          "name": "_title",
          "type": "string"
        },
        {
          "internalType": "string",
          "name": "_description",
          "type": "string"
        },
        {
          "internalType": "uint256",
          "name": "_productPrice",
          "type": "uint256"
        },
        {
          "internalType": "uint256",
          "name": "_commissionRate",
          "type": "uint256"
        },
        {
          "internalType": "uint256",
          "name": "_bonusPool",
          "type": "uint256"
        },
        {
          "internalType": "string",
          "name": "_coverImageHash",
          "type": "string"
        }
      ],
      "name": "createTask",
      "outputs": [],
      "stateMutability": "payable",
      "type": "function"
    },
    {
      "inputs": [
        {
          "internalType": "uint256",
          "name": "_taskId",
          "type": "uint256"
        }
      ],
      "name": "deactivateTask",
      "outputs": [],
      "stateMutability": "nonpayable",
      "type": "function"
    },
    {
      "inputs": [
        {
          "internalType": "address",
          "name": "_advertiser",
          "type": "address"
        }
      ],
      "name": "getAdvertiserTasks",
      "outputs": [
        {
          "internalType": "uint256[]",
          "name": "",
          "type": "uint256[]"
        }
      ],
      "stateMutability": "view",
      "type": "function"
    },
    {
      "inputs": [],
      "name": "getAllTasks",
      "outputs": [
        {
          "internalType": "uint256[]",
          "name": "",
          "type": "uint256[]"
        }
      ],
      "stateMutability": "view",
      "type": "function"
    },
    {
      "inputs": [
        {
          "internalType": "uint256",
          "name": "_limit",
          "type": "uint256"
        }
      ],
      "name": "getPromoterLeaderboard",
      "outputs": [
        {
          "internalType": "address[]",
          "name": "",
          "type": "address[]"
        },
        {
          "internalType": "uint256[]",
          "name": "",
          "type": "uint256[]"
        }
      ],
      "stateMutability": "view",
      "type": "function"
    },
    {
      "inputs": [
        {
          "internalType": "address",
          "name": "_promoter",
          "type": "address"
        }
      ],
      "name": "getPromoterPurchases",
      "outputs": [
        {
          "internalType": "uint256[]",
          "name": "",
          "type": "uint256[]"
        }
      ],
      "stateMutability": "view",
      "type": "function"
    },
    {
      "inputs": [
        {
          "internalType": "address",
          "name": "_promoter",
          "type": "address"
        }
      ],
      "name": "getPromoterReferrals",
      "outputs": [
        {
          "internalType": "uint256[]",
          "name": "",
          "type": "uint256[]"
        }
      ],
      "stateMutability": "view",
      "type": "function"
    },
    {
      "inputs": [
        {
          "internalType": "uint256",
          "name": "_purchaseId",
          "type": "uint256"
        }
      ],
      "name": "getPurchase",
      "outputs": [
        {
          "components": [
            {
              "internalType": "uint256",
              "name": "id",
              "type": "uint256"
            },
            {
              "internalType": "uint256",
              "name": "taskId",
              "type": "uint256"
            },
            {
              "internalType": "uint256",
              "name": "referralId",
              "type": "uint256"
            },
            {
              "internalType": "address",
              "name": "buyer",
              "type": "address"
            },
            {
              "internalType": "address",
              "name": "promoter",
              "type": "address"
            },
            {
              "internalType": "address",
              "name": "advertiser",
              "type": "address"
            },
            {
              "internalType": "uint256",
              "name": "productPrice",
              "type": "uint256"
            },
            {
              "internalType": "uint256",
              "name": "commissionAmount",
              "type": "uint256"
            },
            {
              "internalType": "uint256",
              "name": "timestamp",
              "type": "uint256"
            }
          ],
          "internalType": "struct ZhongCaoCommunity.Purchase",
          "name": "",
          "type": "tuple"
        }
      ],
      "stateMutability": "view",
      "type": "function"
    },
    {
      "inputs": [
        {
          "internalType": "uint256",
          "name": "_referralId",
          "type": "uint256"
        }
      ],
      "name": "getReferral",
      "outputs": [
        {
          "components": [
            {
              "internalType": "uint256",
              "name": "id",
              "type": "uint256"
            },
            {
              "internalType": "uint256",
              "name": "taskId",
              "type": "uint256"
            },
            {
              "internalType": "address",
              "name": "promoter",
              "type": "address"
            },
            {
              "internalType": "string",
              "name": "refCode",
              "type": "string"
            },
            {
              "internalType": "uint256",
              "name": "createdAt",
              "type": "uint256"
            },
            {
              "internalType": "uint256",
              "name": "purchaseCount",
              "type": "uint256"
            }
          ],
          "internalType": "struct ZhongCaoCommunity.Referral",
          "name": "",
          "type": "tuple"
        }
      ],
      "stateMutability": "view",
      "type": "function"
    },
    {
      "inputs": [
        {
          "internalType": "uint256",
          "name": "_taskId",
          "type": "uint256"
        }
      ],
      "name": "getTask",
      "outputs": [
        {
          "components": [
            {
              "internalType": "uint256",
              "name": "id",
              "type": "uint256"
            },
            {
              "internalType": "address",
              "name": "advertiser",
              "type": "address"
            },
            {
              "internalType": "string",
              "name": "title",
              "type": "string"
            },
            {
              "internalType": "string",
              "name": "description",
              "type": "string"
            },
            {
              "internalType": "uint256",
              "name": "productPrice",
              "type": "uint256"
            },
            {
              "internalType": "uint256",
              "name": "commissionRate",
              "type": "uint256"
            },
            {
              "internalType": "uint256",
              "name": "bonusPool",
              "type": "uint256"
            },
            {
              "internalType": "string",
              "name": "coverImageHash",
              "type": "string"
            },
            {
              "internalType": "bool",
              "name": "isActive",
              "type": "bool"
            },
            {
              "internalType": "uint256",
              "name": "createdAt",
              "type": "uint256"
            },
            {
              "internalType": "uint256",
              "name": "referralCount",
              "type": "uint256"
            },
            {
              "internalType": "uint256",
              "name": "purchaseCount",
              "type": "uint256"
            }
          ],
          "internalType": "struct ZhongCaoCommunity.Task",
          "name": "",
          "type": "tuple"
        }
      ],
      "stateMutability": "view",
      "type": "function"
    },
    {
      "inputs": [
        {
          "internalType": "address",
          "name": "_user",
          "type": "address"
        }
      ],
      "name": "getUserPurchases",
      "outputs": [
        {
          "internalType": "uint256[]",
          "name": "",
          "type": "uint256[]"
        }
      ],
      "stateMutability": "view",
      "type": "function"
    },
    {
      "inputs": [],
      "name": "owner",
      "outputs": [
        {
          "internalType": "address",
          "name": "",
          "type": "address"
        }
      ],
      "stateMutability": "view",
      "type": "function"
    },
    {
      "inputs": [],
      "name": "paused",
      "outputs": [
        {
          "internalType": "bool",
          "name": "",
          "type": "bool"
        }
      ],
      "stateMutability": "view",
      "type": "function"
    },
    {
      "inputs": [
        {
          "internalType": "address",
          "name": "",
          "type": "address"
        },
        {
          "internalType": "uint256",
          "name": "",
          "type": "uint256"
        }
      ],
      "name": "promoterReferrals",
      "outputs": [
        {
          "internalType": "uint256",
          "name": "",
          "type": "uint256"
        }
      ],
      "stateMutability": "view",
      "type": "function"
    },
    {
      "inputs": [
        {
          "internalType": "string",
          "name": "_refCode",
          "type": "string"
        }
      ],
      "name": "purchase",
      "outputs": [],
      "stateMutability": "payable",
      "type": "function"
    },
    {
      "inputs": [
        {
          "internalType": "uint256",
          "name": "",
          "type": "uint256"
        }
      ],
      "name": "purchases",
      "outputs": [
        {
          "internalType": "uint256",
          "name": "id",
          "type": "uint256"
        },
        {
          "internalType": "uint256",
          "name": "taskId",
          "type": "uint256"
        },
        {
          "internalType": "uint256",
          "name": "referralId",
          "type": "uint256"
        },
        {
          "internalType": "address",
          "name": "buyer",
          "type": "address"
        },
        {
          "internalType": "address",
          "name": "promoter",
          "type": "address"
        },
        {
          "internalType": "address",
          "name": "advertiser",
          "type": "address"
        },
        {
          "internalType": "uint256",
          "name": "productPrice",
          "type": "uint256"
        },
        {
          "internalType": "uint256",
          "name": "commissionAmount",
          "type": "uint256"
        },
        {
          "internalType": "uint256",
          "name": "timestamp",
          "type": "uint256"
        }
      ],
      "stateMutability": "view",
      "type": "function"
    },
    {
      "inputs": [
        {
          "internalType": "string",
          "name": "",
          "type": "string"
        }
      ],
      "name": "refCodeToReferralId",
      "outputs": [
        {
          "internalType": "uint256",
          "name": "",
          "type": "uint256"
        }
      ],
      "stateMutability": "view",
      "type": "function"
    },
    {
      "inputs": [
        {
          "internalType": "uint256",
          "name": "",
          "type": "uint256"
        }
      ],
      "name": "referrals",
      "outputs": [
        {
          "internalType": "uint256",
          "name": "id",
          "type": "uint256"
        },
        {
          "internalType": "uint256",
          "name": "taskId",
          "type": "uint256"
        },
        {
          "internalType": "address",
          "name": "promoter",
          "type": "address"
        },
        {
          "internalType": "string",
          "name": "refCode",
          "type": "string"
        },
        {
          "internalType": "uint256",
          "name": "createdAt",
          "type": "uint256"
        },
        {
          "internalType": "uint256",
          "name": "purchaseCount",
          "type": "uint256"
        }
      ],
      "stateMutability": "view",
      "type": "function"
    },
    {
      "inputs": [],
      "name": "renounceOwnership",
      "outputs": [],
      "stateMutability": "nonpayable",
      "type": "function"
    },
    {
      "inputs": [
        {
          "internalType": "uint256",
          "name": "",
          "type": "uint256"
        },
        {
          "internalType": "address",
          "name": "",
          "type": "address"
        }
      ],
      "name": "taskAcceptedByUser",
      "outputs": [
        {
          "internalType": "bool",
          "name": "",
          "type": "bool"
        }
      ],
      "stateMutability": "view",
      "type": "function"
    },
    {
      "inputs": [
        {
          "internalType": "uint256",
          "name": "",
          "type": "uint256"
        },
        {
          "internalType": "uint256",
          "name": "",
          "type": "uint256"
        }
      ],
      "name": "taskReferrals",
      "outputs": [
        {
          "internalType": "uint256",
          "name": "",
          "type": "uint256"
        }
      ],
      "stateMutability": "view",
      "type": "function"
    },
    {
      "inputs": [
        {
          "internalType": "uint256",
          "name": "",
          "type": "uint256"
        }
      ],
      "name": "tasks",
      "outputs": [
        {
          "internalType": "uint256",
          "name": "id",
          "type": "uint256"
        },
        {
          "internalType": "address",
          "name": "advertiser",
          "type": "address"
        },
        {
          "internalType": "string",
          "name": "title",
          "type": "string"
        },
        {
          "internalType": "string",
          "name": "description",
          "type": "string"
        },
        {
          "internalType": "uint256",
          "name": "productPrice",
          "type": "uint256"
        },
        {
          "internalType": "uint256",
          "name": "commissionRate",
          "type": "uint256"
        },
        {
          "internalType": "uint256",
          "name": "bonusPool",
          "type": "uint256"
        },
        {
          "internalType": "string",
          "name": "coverImageHash",
          "type": "string"
        },
        {
          "internalType": "bool",
          "name": "isActive",
          "type": "bool"
        },
        {
          "internalType": "uint256",
          "name": "createdAt",
          "type": "uint256"
        },
        {
          "internalType": "uint256",
          "name": "referralCount",
          "type": "uint256"
        },
        {
          "internalType": "uint256",
          "name": "purchaseCount",
          "type": "uint256"
        }
      ],
      "stateMutability": "view",
      "type": "function"
    },
    {
      "inputs": [
        {
          "internalType": "address",
          "name": "newOwner",
          "type": "address"
        }
      ],
      "name": "transferOwnership",
      "outputs": [],
      "stateMutability": "nonpayable",
      "type": "function"
    },
    {
      "inputs": [
        {
          "internalType": "address",
          "name": "",
          "type": "address"
        },
        {
          "internalType": "uint256",
          "name": "",
          "type": "uint256"
        }
      ],
      "name": "userPurchases",
      "outputs": [
        {
          "internalType": "uint256",
          "name": "",
          "type": "uint256"
        }
      ],
      "stateMutability": "view",
      "type": "function"
    }
  ],
  "bytecode": "0x608060405234801561001057600080fd5b5033600073ffffffffffffffffffffffffffffffffffffffff168173ffffffffffffffffffffffffffffffffffffffff16036100845760006040517f1e4fbdf700000000000000000000000000000000000000000000000000000000815260040161007b91906101a5565b60405180910390fd5b610093816100a060201b60201c565b50600180819055506101c0565b60008060009054906101000a900473ffffffffffffffffffffffffffffffffffffffff169050816000806101000a81548173ffffffffffffffffffffffffffffffffffffffff021916908373ffffffffffffffffffffffffffffffffffffffff1602179055508173ffffffffffffffffffffffffffffffffffffffff168173ffffffffffffffffffffffffffffffffffffffff167f8be0079c531659141344cd1fd0a4f28419497f9722a3daafe3b4186f6b6457e060405160405180910390a35050565b600073ffffffffffffffffffffffffffffffffffffffff82169050919050565b600061018f82610164565b9050919050565b61019f81610184565b82525050565b60006020820190506101ba6000830184610196565b92915050565b615361806101cf6000396000f3fe60806040526004361061019c5760003560e01c80638330d0d8116100ec578063c6e5d8f61161008a578063e1ab1c7011610064578063e1ab1c701461066f578063ebb56c6a146106ac578063f074501a146106c8578063f2fde38b146107055761019c565b8063c6e5d8f6146105b7578063cf2c0334146105f4578063d5b0672e146106315761019c565b80638da5cb5b116100c65780638da5cb5b146104f6578063ba9a83e014610521578063c189e7191461053d578063c4eb58711461057a5761019c565b80638330d0d81461042c5780638392fe31146104695780638d977672146104ae5761019c565b80635c2796d8116101595780636616ee95116101335780636616ee951461036b578063715018a6146103a8578063779900b4146103bf57806380b7c92b146103ea5761019c565b80635c2796d8146102c65780635c975abb1461030357806362c3a7591461032e5761019c565b80631bf6912d146101a15780631d65e77e146101ca5780632edcb0d9146102075780633742a9f71461024457806347e3f1cb1461028157806359f5e0ce146102aa575b600080fd5b3480156101ad57600080fd5b506101c860048036038101906101c39190613784565b61072e565b005b3480156101d657600080fd5b506101f160048036038101906101ec9190613784565b610b4f565b6040516101fe91906139be565b60405180910390f35b34801561021357600080fd5b5061022e60048036038101906102299190613a0c565b610e40565b60405161023b9190613ae8565b60405180910390f35b34801561025057600080fd5b5061026b60048036038101906102669190613784565b610ffd565b6040516102789190613bc1565b60405180910390f35b34801561028d57600080fd5b506102a860048036038101906102a39190613784565b6111bc565b005b6102c460048036038101906102bf9190613d12565b611488565b005b3480156102d257600080fd5b506102ed60048036038101906102e89190613d5b565b611b3c565b6040516102fa9190613daa565b60405180910390f35b34801561030f57600080fd5b50610318611b6b565b6040516103259190613daa565b60405180910390f35b34801561033a57600080fd5b5061035560048036038101906103509190613dc5565b611b81565b6040516103629190613e14565b60405180910390f35b34801561037757600080fd5b50610392600480360381019061038d9190613e2f565b611bb2565b60405161039f9190613e14565b60405180910390f35b3480156103b457600080fd5b506103bd611be3565b005b3480156103cb57600080fd5b506103d4611bf7565b6040516103e19190613ae8565b60405180910390f35b3480156103f657600080fd5b50610411600480360381019061040c9190613784565b611d2f565b60405161042396959493929190613ec8565b60405180910390f35b34801561043857600080fd5b50610453600480360381019061044e9190613784565b611e13565b6040516104609190613fb9565b60405180910390f35b34801561047557600080fd5b50610490600480360381019061048b9190613784565b611fa4565b6040516104a599989796959493929190613fdb565b60405180910390f35b3480156104ba57600080fd5b506104d560048036038101906104d09190613784565b612052565b6040516104ed9c9b9a99989796959493929190614068565b60405180910390f35b34801561050257600080fd5b5061050b612277565b6040516105189190614137565b60405180910390f35b61053b60048036038101906105369190614152565b6122a0565b005b34801561054957600080fd5b50610564600480360381019061055f9190613a0c565b6126b9565b6040516105719190613ae8565b60405180910390f35b34801561058657600080fd5b506105a1600480360381019061059c9190613a0c565b612750565b6040516105ae9190613ae8565b60405180910390f35b3480156105c357600080fd5b506105de60048036038101906105d99190613a0c565b6127e7565b6040516105eb9190613ae8565b60405180910390f35b34801561060057600080fd5b5061061b60048036038101906106169190613e2f565b61287e565b6040516106289190613e14565b60405180910390f35b34801561063d57600080fd5b5061065860048036038101906106539190613784565b6128af565b6040516106669291906142e2565b60405180910390f35b34801561067b57600080fd5b5061069660048036038101906106919190613d12565b613004565b6040516106a39190613e14565b60405180910390f35b6106c660048036038101906106c19190613784565b613032565b005b3480156106d457600080fd5b506106ef60048036038101906106ea9190613e2f565b6131f8565b6040516106fc9190613e14565b60405180910390f35b34801561071157600080fd5b5061072c60048036038101906107279190613a0c565b613229565b005b6107366132af565b8060008111801561074c57506002600001548111155b61078b576040517f08c379a000000000000000000000000000000000000000000000000000000000815260040161078290614365565b60405180910390fd5b816005600082815260200190815260200160002060080160009054906101000a900460ff166107ef576040517f08c379a00000000000000000000000000000000000000000000000000000000081526004016107e6906143d1565b60405180910390fd5b600d600084815260200190815260200160002060003373ffffffffffffffffffffffffffffffffffffffff1673ffffffffffffffffffffffffffffffffffffffff16815260200190815260200160002060009054906101000a900460ff161561088d576040517f08c379a00000000000000000000000000000000000000000000000000000000081526004016108849061443d565b60405180910390fd5b600061089a3385426132f0565b9050600260010160008154809291906108b29061448c565b9190505550600060026001015490506040518060c001604052808281526020018681526020013373ffffffffffffffffffffffffffffffffffffffff168152602001838152602001428152602001600081525060066000838152602001908152602001600020600082015181600001556020820151816001015560408201518160020160006101000a81548173ffffffffffffffffffffffffffffffffffffffff021916908373ffffffffffffffffffffffffffffffffffffffff160217905550606082015181600301908161098891906146e0565b506080820151816004015560a08201518160050155905050806008836040516109b191906147ee565b90815260200160405180910390208190555060096000868152602001908152602001600020819080600181540180825580915050600190039060005260206000200160009091909190915055600b60003373ffffffffffffffffffffffffffffffffffffffff1673ffffffffffffffffffffffffffffffffffffffff1681526020019081526020016000208190806001815401808255809150506001900390600052602060002001600090919091909150556001600d600087815260200190815260200160002060003373ffffffffffffffffffffffffffffffffffffffff1673ffffffffffffffffffffffffffffffffffffffff16815260200190815260200160002060006101000a81548160ff02191690831515021790555060056000868152602001908152602001600020600a016000815480929190610af39061448c565b91905055503373ffffffffffffffffffffffffffffffffffffffff1685827f181b4872aa56da38e188e933cb3720cadaddfcabdb1d47caede8571c33ccc39085604051610b409190614805565b60405180910390a45050505050565b610b576135e7565b81600081118015610b6d57506002600001548111155b610bac576040517f08c379a0000000000000000000000000000000000000000000000000000000008152600401610ba390614365565b60405180910390fd5b6005600084815260200190815260200160002060405180610180016040529081600082015481526020016001820160009054906101000a900473ffffffffffffffffffffffffffffffffffffffff1673ffffffffffffffffffffffffffffffffffffffff1673ffffffffffffffffffffffffffffffffffffffff168152602001600282018054610c3b90614503565b80601f0160208091040260200160405190810160405280929190818152602001828054610c6790614503565b8015610cb45780601f10610c8957610100808354040283529160200191610cb4565b820191906000526020600020905b815481529060010190602001808311610c9757829003601f168201915b50505050508152602001600382018054610ccd90614503565b80601f0160208091040260200160405190810160405280929190818152602001828054610cf990614503565b8015610d465780601f10610d1b57610100808354040283529160200191610d46565b820191906000526020600020905b815481529060010190602001808311610d2957829003601f168201915b50505050508152602001600482015481526020016005820154815260200160068201548152602001600782018054610d7d90614503565b80601f0160208091040260200160405190810160405280929190818152602001828054610da990614503565b8015610df65780601f10610dcb57610100808354040283529160200191610df6565b820191906000526020600020905b815481529060010190602001808311610dd957829003601f168201915b505050505081526020016008820160009054906101000a900460ff1615151515815260200160098201548152602001600a8201548152602001600b82015481525050915050919050565b60606000600280015467ffffffffffffffff811115610e6257610e61613be7565b5b604051908082528060200260200182016040528015610e905781602001602082028036833780820191505090505b509050600080600190505b60028001548111610f51578473ffffffffffffffffffffffffffffffffffffffff166007600083815260200190815260200160002060040160009054906101000a900473ffffffffffffffffffffffffffffffffffffffff1673ffffffffffffffffffffffffffffffffffffffff1603610f3e5780838381518110610f2357610f22614827565b5b6020026020010181815250508180610f3a9061448c565b9250505b8080610f499061448c565b915050610e9b565b5060008167ffffffffffffffff811115610f6e57610f6d613be7565b5b604051908082528060200260200182016040528015610f9c5781602001602082028036833780820191505090505b50905060005b82811015610ff157838181518110610fbd57610fbc614827565b5b6020026020010151828281518110610fd857610fd7614827565b5b6020026020010181815250508080600101915050610fa2565b50809350505050919050565b611005613660565b600082118015611019575060028001548211155b611058576040517f08c379a000000000000000000000000000000000000000000000000000000000815260040161104f906148a2565b60405180910390fd5b60076000838152602001908152602001600020604051806101200160405290816000820154815260200160018201548152602001600282015481526020016003820160009054906101000a900473ffffffffffffffffffffffffffffffffffffffff1673ffffffffffffffffffffffffffffffffffffffff1673ffffffffffffffffffffffffffffffffffffffff1681526020016004820160009054906101000a900473ffffffffffffffffffffffffffffffffffffffff1673ffffffffffffffffffffffffffffffffffffffff1673ffffffffffffffffffffffffffffffffffffffff1681526020016005820160009054906101000a900473ffffffffffffffffffffffffffffffffffffffff1673ffffffffffffffffffffffffffffffffffffffff1673ffffffffffffffffffffffffffffffffffffffff16815260200160068201548152602001600782015481526020016008820154815250509050919050565b6111c46132af565b806000811180156111da57506002600001548111155b611219576040517f08c379a000000000000000000000000000000000000000000000000000000000815260040161121090614365565b60405180910390fd5b813373ffffffffffffffffffffffffffffffffffffffff166005600083815260200190815260200160002060010160009054906101000a900473ffffffffffffffffffffffffffffffffffffffff1673ffffffffffffffffffffffffffffffffffffffff16146112be576040517f08c379a00000000000000000000000000000000000000000000000000000000081526004016112b59061490e565b60405180910390fd5b6005600084815260200190815260200160002060080160009054906101000a900460ff16611321576040517f08c379a00000000000000000000000000000000000000000000000000000000081526004016113189061497a565b60405180910390fd5b60006005600085815260200190815260200160002060080160006101000a81548160ff021916908315150217905550600060056000858152602001908152602001600020600601549050600081111561143e576000600560008681526020019081526020016000206006018190555060003373ffffffffffffffffffffffffffffffffffffffff16826040516113b6906149cb565b60006040518083038185875af1925050503d80600081146113f3576040519150601f19603f3d011682016040523d82523d6000602084013e6113f8565b606091505b505090508061143c576040517f08c379a000000000000000000000000000000000000000000000000000000000815260040161143390614a2c565b60405180910390fd5b505b3373ffffffffffffffffffffffffffffffffffffffff16847fef7ed83d20f4f259262a1b303926939da55ace3188150f9fbdbe282b7bc894c160405160405180910390a350505050565b6114906132af565b611498613445565b60006008826040516114aa91906147ee565b9081526020016040518091039020549050600081116114fe576040517f08c379a00000000000000000000000000000000000000000000000000000000081526004016114f590614a98565b60405180910390fd5b60006006600083815260200190815260200160002090506000600560008360010154815260200190815260200160002090508060080160009054906101000a900460ff16611581576040517f08c379a0000000000000000000000000000000000000000000000000000000008152600401611578906143d1565b60405180910390fd5b806004015434146115c7576040517f08c379a00000000000000000000000000000000000000000000000000000000081526004016115be90614b04565b60405180910390fd5b600060648260050154346115db9190614b24565b6115e59190614b95565b9050808260060154101561162e576040517f08c379a000000000000000000000000000000000000000000000000000000000815260040161162590614c12565b60405180910390fd5b6002800160008154809291906116439061448c565b9190505550600060028001549050818360060160008282546116659190614c32565b9250508190555082600b0160008154809291906116819061448c565b919050555083600501600081548092919061169b9061448c565b9190505550604051806101200160405280828152602001856001015481526020018681526020013373ffffffffffffffffffffffffffffffffffffffff1681526020018560020160009054906101000a900473ffffffffffffffffffffffffffffffffffffffff1673ffffffffffffffffffffffffffffffffffffffff1681526020018460010160009054906101000a900473ffffffffffffffffffffffffffffffffffffffff1673ffffffffffffffffffffffffffffffffffffffff168152602001348152602001838152602001428152506007600083815260200190815260200160002060008201518160000155602082015181600101556040820151816002015560608201518160030160006101000a81548173ffffffffffffffffffffffffffffffffffffffff021916908373ffffffffffffffffffffffffffffffffffffffff16021790555060808201518160040160006101000a81548173ffffffffffffffffffffffffffffffffffffffff021916908373ffffffffffffffffffffffffffffffffffffffff16021790555060a08201518160050160006101000a81548173ffffffffffffffffffffffffffffffffffffffff021916908373ffffffffffffffffffffffffffffffffffffffff16021790555060c0820151816006015560e082015181600701556101008201518160080155905050600c60003373ffffffffffffffffffffffffffffffffffffffff1673ffffffffffffffffffffffffffffffffffffffff16815260200190815260200160002081908060018154018082558091505060019003906000526020600020016000909190919091505560008460020160009054906101000a900473ffffffffffffffffffffffffffffffffffffffff1673ffffffffffffffffffffffffffffffffffffffff1683604051611946906149cb565b60006040518083038185875af1925050503d8060008114611983576040519150601f19603f3d011682016040523d82523d6000602084013e611988565b606091505b50509050806119cc576040517f08c379a00000000000000000000000000000000000000000000000000000000081526004016119c390614cd8565b60405180910390fd5b60008460010160009054906101000a900473ffffffffffffffffffffffffffffffffffffffff1673ffffffffffffffffffffffffffffffffffffffff1634604051611a16906149cb565b60006040518083038185875af1925050503d8060008114611a53576040519150601f19603f3d011682016040523d82523d6000602084013e611a58565b606091505b5050905080611a9c576040517f08c379a0000000000000000000000000000000000000000000000000000000008152600401611a9390614d6a565b60405180910390fd5b868660010154847fd67d21011258101447633c48660f0a040b9641a9ab1836afd6528ebcbab37535338a60020160009054906101000a900473ffffffffffffffffffffffffffffffffffffffff168a60010160009054906101000a900473ffffffffffffffffffffffffffffffffffffffff16348b604051611b22959493929190614d8a565b60405180910390a450505050505050611b3961348b565b50565b600d6020528160005260406000206020528060005260406000206000915091509054906101000a900460ff1681565b60008060149054906101000a900460ff16905090565b60096020528160005260406000208181548110611b9d57600080fd5b90600052602060002001600091509150505481565b600b6020528160005260406000208181548110611bce57600080fd5b90600052602060002001600091509150505481565b611beb613494565b611bf5600061351b565b565b6060600080600190505b6002600001548111611c58576005600082815260200190815260200160002060080160009054906101000a900460ff1615611c45578180611c419061448c565b9250505b8080611c509061448c565b915050611c01565b5060008167ffffffffffffffff811115611c7557611c74613be7565b5b604051908082528060200260200182016040528015611ca35781602001602082028036833780820191505090505b509050600080600190505b6002600001548111611d25576005600082815260200190815260200160002060080160009054906101000a900460ff1615611d125780838381518110611cf757611cf6614827565b5b6020026020010181815250508180611d0e9061448c565b9250505b8080611d1d9061448c565b915050611cae565b5081935050505090565b60066020528060005260406000206000915090508060000154908060010154908060020160009054906101000a900473ffffffffffffffffffffffffffffffffffffffff1690806003018054611d8490614503565b80601f0160208091040260200160405190810160405280929190818152602001828054611db090614503565b8015611dfd5780601f10611dd257610100808354040283529160200191611dfd565b820191906000526020600020905b815481529060010190602001808311611de057829003601f168201915b5050505050908060040154908060050154905086565b611e1b6136ee565b600082118015611e3057506002600101548211155b611e6f576040517f08c379a0000000000000000000000000000000000000000000000000000000008152600401611e6690614e29565b60405180910390fd5b600660008381526020019081526020016000206040518060c001604052908160008201548152602001600182015481526020016002820160009054906101000a900473ffffffffffffffffffffffffffffffffffffffff1673ffffffffffffffffffffffffffffffffffffffff1673ffffffffffffffffffffffffffffffffffffffff168152602001600382018054611f0790614503565b80601f0160208091040260200160405190810160405280929190818152602001828054611f3390614503565b8015611f805780601f10611f5557610100808354040283529160200191611f80565b820191906000526020600020905b815481529060010190602001808311611f6357829003601f168201915b50505050508152602001600482015481526020016005820154815250509050919050565b60076020528060005260406000206000915090508060000154908060010154908060020154908060030160009054906101000a900473ffffffffffffffffffffffffffffffffffffffff16908060040160009054906101000a900473ffffffffffffffffffffffffffffffffffffffff16908060050160009054906101000a900473ffffffffffffffffffffffffffffffffffffffff16908060060154908060070154908060080154905089565b60056020528060005260406000206000915090508060000154908060010160009054906101000a900473ffffffffffffffffffffffffffffffffffffffff16908060020180546120a190614503565b80601f01602080910402602001604051908101604052809291908181526020018280546120cd90614503565b801561211a5780601f106120ef5761010080835404028352916020019161211a565b820191906000526020600020905b8154815290600101906020018083116120fd57829003601f168201915b50505050509080600301805461212f90614503565b80601f016020809104026020016040519081016040528092919081815260200182805461215b90614503565b80156121a85780601f1061217d576101008083540402835291602001916121a8565b820191906000526020600020905b81548152906001019060200180831161218b57829003601f168201915b5050505050908060040154908060050154908060060154908060070180546121cf90614503565b80601f01602080910402602001604051908101604052809291908181526020018280546121fb90614503565b80156122485780601f1061221d57610100808354040283529160200191612248565b820191906000526020600020905b81548152906001019060200180831161222b57829003601f168201915b5050505050908060080160009054906101000a900460ff169080600901549080600a01549080600b015490508c565b60008060009054906101000a900473ffffffffffffffffffffffffffffffffffffffff16905090565b6122a86132af565b600086511180156122bb57506064865111155b6122fa576040517f08c379a00000000000000000000000000000000000000000000000000000000081526004016122f190614e95565b60405180910390fd5b6101f485511115612340576040517f08c379a000000000000000000000000000000000000000000000000000000000815260040161233790614f01565b60405180910390fd5b60008411612383576040517f08c379a000000000000000000000000000000000000000000000000000000000815260040161237a90614f93565b60405180910390fd5b60008310158015612395575060648311155b6123d4576040517f08c379a00000000000000000000000000000000000000000000000000000000081526004016123cb90614fff565b60405180910390fd5b60008211612417576040517f08c379a000000000000000000000000000000000000000000000000000000000815260040161240e90615091565b60405180910390fd5b8134101561245a576040517f08c379a0000000000000000000000000000000000000000000000000000000008152600401612451906150fd565b60405180910390fd5b600260000160008154809291906124709061448c565b9190505550600060026000015490506040518061018001604052808281526020013373ffffffffffffffffffffffffffffffffffffffff168152602001888152602001878152602001868152602001858152602001848152602001838152602001600115158152602001428152602001600081526020016000815250600560008381526020019081526020016000206000820151816000015560208201518160010160006101000a81548173ffffffffffffffffffffffffffffffffffffffff021916908373ffffffffffffffffffffffffffffffffffffffff160217905550604082015181600201908161256591906146e0565b50606082015181600301908161257b91906146e0565b506080820151816004015560a0820151816005015560c0820151816006015560e08201518160070190816125af91906146e0565b506101008201518160080160006101000a81548160ff021916908315150217905550610120820151816009015561014082015181600a015561016082015181600b0155905050600a60003373ffffffffffffffffffffffffffffffffffffffff1673ffffffffffffffffffffffffffffffffffffffff1681526020019081526020016000208190806001815401808255809150506001900390600052602060002001600090919091909150553373ffffffffffffffffffffffffffffffffffffffff16817f8623ed2339baafec131f38526e1e8c85a4e636b9698a20b0c87705450c927390898888886040516126a8949392919061511d565b60405180910390a350505050505050565b6060600a60008373ffffffffffffffffffffffffffffffffffffffff1673ffffffffffffffffffffffffffffffffffffffff16815260200190815260200160002080548060200260200160405190810160405280929190818152602001828054801561274457602002820191906000526020600020905b815481526020019060010190808311612730575b50505050509050919050565b6060600b60008373ffffffffffffffffffffffffffffffffffffffff1673ffffffffffffffffffffffffffffffffffffffff1681526020019081526020016000208054806020026020016040519081016040528092919081815260200182805480156127db57602002820191906000526020600020905b8154815260200190600101908083116127c7575b50505050509050919050565b6060600c60008373ffffffffffffffffffffffffffffffffffffffff1673ffffffffffffffffffffffffffffffffffffffff16815260200190815260200160002080548060200260200160405190810160405280929190818152602001828054801561287257602002820191906000526020600020905b81548152602001906001019080831161285e575b50505050509050919050565b600c602052816000526040600020818154811061289a57600080fd5b90600052602060002001600091509150505481565b6060806000600280015467ffffffffffffffff8111156128d2576128d1613be7565b5b6040519080825280602002602001820160405280156129005781602001602082028036833780820191505090505b5090506000600280015467ffffffffffffffff81111561292357612922613be7565b5b6040519080825280602002602001820160405280156129515781602001602082028036833780820191505090505b509050600080600190505b60028001548111612b045760006007600083815260200190815260200160002060040160009054906101000a900473ffffffffffffffffffffffffffffffffffffffff1690506000805b84811015612a56578273ffffffffffffffffffffffffffffffffffffffff168782815181106129d8576129d7614827565b5b602002602001015173ffffffffffffffffffffffffffffffffffffffff1603612a49576007600085815260200190815260200160002060070154868281518110612a2557612a24614827565b5b60200260200101818151612a399190615169565b9150818152505060019150612a56565b80806001019150506129a6565b5080612aef5781868581518110612a7057612a6f614827565b5b602002602001019073ffffffffffffffffffffffffffffffffffffffff16908173ffffffffffffffffffffffffffffffffffffffff16815250506007600084815260200190815260200160002060070154858581518110612ad457612ad3614827565b5b6020026020010181815250508380612aeb9061448c565b9450505b50508080612afc9061448c565b91505061295c565b5060008167ffffffffffffffff811115612b2157612b20613be7565b5b604051908082528060200260200182016040528015612b4f5781602001602082028036833780820191505090505b50905060008267ffffffffffffffff811115612b6e57612b6d613be7565b5b604051908082528060200260200182016040528015612b9c5781602001602082028036833780820191505090505b50905060005b83811015612c5957858181518110612bbd57612bbc614827565b5b6020026020010151838281518110612bd857612bd7614827565b5b602002602001019073ffffffffffffffffffffffffffffffffffffffff16908173ffffffffffffffffffffffffffffffffffffffff1681525050848181518110612c2557612c24614827565b5b6020026020010151828281518110612c4057612c3f614827565b5b6020026020010181815250508080600101915050612ba2565b5060005b600184612c6a9190614c32565b811015612e775760005b60018286612c829190614c32565b612c8c9190614c32565b811015612e695782600182612ca19190615169565b81518110612cb257612cb1614827565b5b6020026020010151838281518110612ccd57612ccc614827565b5b60200260200101511015612e5c576000848281518110612cf057612cef614827565b5b6020026020010151905084600183612d089190615169565b81518110612d1957612d18614827565b5b6020026020010151858381518110612d3457612d33614827565b5b602002602001019073ffffffffffffffffffffffffffffffffffffffff16908173ffffffffffffffffffffffffffffffffffffffff16815250508085600184612d7d9190615169565b81518110612d8e57612d8d614827565b5b602002602001019073ffffffffffffffffffffffffffffffffffffffff16908173ffffffffffffffffffffffffffffffffffffffff16815250506000848381518110612ddd57612ddc614827565b5b6020026020010151905084600184612df59190615169565b81518110612e0657612e05614827565b5b6020026020010151858481518110612e2157612e20614827565b5b6020026020010181815250508085600185612e3c9190615169565b81518110612e4d57612e4c614827565b5b60200260200101818152505050505b8080600101915050612c74565b508080600101915050612c5d565b50600088118015612e8757508288105b15612ff35760008867ffffffffffffffff811115612ea857612ea7613be7565b5b604051908082528060200260200182016040528015612ed65781602001602082028036833780820191505090505b50905060008967ffffffffffffffff811115612ef557612ef4613be7565b5b604051908082528060200260200182016040528015612f235781602001602082028036833780820191505090505b50905060005b8a811015612fe057848181518110612f4457612f43614827565b5b6020026020010151838281518110612f5f57612f5e614827565b5b602002602001019073ffffffffffffffffffffffffffffffffffffffff16908173ffffffffffffffffffffffffffffffffffffffff1681525050838181518110612fac57612fab614827565b5b6020026020010151828281518110612fc757612fc6614827565b5b6020026020010181815250508080600101915050612f29565b5081819850985050505050505050612fff565b81819650965050505050505b915091565b6008818051602081018201805184825260208301602085012081835280955050505050506000915090505481565b61303a6132af565b8060008111801561305057506002600001548111155b61308f576040517f08c379a000000000000000000000000000000000000000000000000000000000815260040161308690614365565b60405180910390fd5b813373ffffffffffffffffffffffffffffffffffffffff166005600083815260200190815260200160002060010160009054906101000a900473ffffffffffffffffffffffffffffffffffffffff1673ffffffffffffffffffffffffffffffffffffffff1614613134576040517f08c379a000000000000000000000000000000000000000000000000000000000815260040161312b9061490e565b60405180910390fd5b60003411613177576040517f08c379a000000000000000000000000000000000000000000000000000000000815260040161316e906151e9565b60405180910390fd5b3460056000858152602001908152602001600020600601600082825461319d9190615169565b925050819055503373ffffffffffffffffffffffffffffffffffffffff16837f344303a8d851d33d4035214336b8563f681a61fecea1edfd8299195e0e999d76346040516131eb9190613e14565b60405180910390a3505050565b600a602052816000526040600020818154811061321457600080fd5b90600052602060002001600091509150505481565b613231613494565b600073ffffffffffffffffffffffffffffffffffffffff168173ffffffffffffffffffffffffffffffffffffffff16036132a35760006040517f1e4fbdf700000000000000000000000000000000000000000000000000000000815260040161329a9190614137565b60405180910390fd5b6132ac8161351b565b50565b6132b7611b6b565b156132ee576040517fd93c066500000000000000000000000000000000000000000000000000000000815260040160405180910390fd5b565b6060600084848460405160200161330993929190615272565b604051602081830303815290604052905060008180519060200120905060006040518060600160405280603e81526020016152ee603e913990506000600c67ffffffffffffffff8111156133605761335f613be7565b5b6040519080825280601f01601f1916602001820160405280156133925781602001600182028036833780820191505090505b50905060005b600c8110156134365782603e8583602081106133b7576133b6614827565b5b1a60f81b60f81c6133c891906152bc565b60ff16815181106133dc576133db614827565b5b602001015160f81c60f81b8282815181106133fa576133f9614827565b5b60200101907effffffffffffffffffffffffffffffffffffffffffffffffffffffffffffff1916908160001a9053508080600101915050613398565b50809450505050509392505050565b600260015403613481576040517f3ee5aeb500000000000000000000000000000000000000000000000000000000815260040160405180910390fd5b6002600181905550565b60018081905550565b61349c6135df565b73ffffffffffffffffffffffffffffffffffffffff166134ba612277565b73ffffffffffffffffffffffffffffffffffffffff1614613519576134dd6135df565b6040517f118cdaa70000000000000000000000000000000000000000000000000000000081526004016135109190614137565b60405180910390fd5b565b60008060009054906101000a900473ffffffffffffffffffffffffffffffffffffffff169050816000806101000a81548173ffffffffffffffffffffffffffffffffffffffff021916908373ffffffffffffffffffffffffffffffffffffffff1602179055508173ffffffffffffffffffffffffffffffffffffffff168173ffffffffffffffffffffffffffffffffffffffff167f8be0079c531659141344cd1fd0a4f28419497f9722a3daafe3b4186f6b6457e060405160405180910390a35050565b600033905090565b60405180610180016040528060008152602001600073ffffffffffffffffffffffffffffffffffffffff1681526020016060815260200160608152602001600081526020016000815260200160008152602001606081526020016000151581526020016000815260200160008152602001600081525090565b604051806101200160405280600081526020016000815260200160008152602001600073ffffffffffffffffffffffffffffffffffffffff168152602001600073ffffffffffffffffffffffffffffffffffffffff168152602001600073ffffffffffffffffffffffffffffffffffffffff1681526020016000815260200160008152602001600081525090565b6040518060c001604052806000815260200160008152602001600073ffffffffffffffffffffffffffffffffffffffff1681526020016060815260200160008152602001600081525090565b6000604051905090565b600080fd5b600080fd5b6000819050919050565b6137618161374e565b811461376c57600080fd5b50565b60008135905061377e81613758565b92915050565b60006020828403121561379a57613799613744565b5b60006137a88482850161376f565b91505092915050565b6137ba8161374e565b82525050565b600073ffffffffffffffffffffffffffffffffffffffff82169050919050565b60006137eb826137c0565b9050919050565b6137fb816137e0565b82525050565b600081519050919050565b600082825260208201905092915050565b60005b8381101561383b578082015181840152602081019050613820565b60008484015250505050565b6000601f19601f8301169050919050565b600061386382613801565b61386d818561380c565b935061387d81856020860161381d565b61388681613847565b840191505092915050565b60008115159050919050565b6138a681613891565b82525050565b6000610180830160008301516138c560008601826137b1565b5060208301516138d860208601826137f2565b50604083015184820360408601526138f08282613858565b9150506060830151848203606086015261390a8282613858565b915050608083015161391f60808601826137b1565b5060a083015161393260a08601826137b1565b5060c083015161394560c08601826137b1565b5060e083015184820360e086015261395d8282613858565b91505061010083015161397461010086018261389d565b506101208301516139896101208601826137b1565b5061014083015161399e6101408601826137b1565b506101608301516139b36101608601826137b1565b508091505092915050565b600060208201905081810360008301526139d881846138ac565b905092915050565b6139e9816137e0565b81146139f457600080fd5b50565b600081359050613a06816139e0565b92915050565b600060208284031215613a2257613a21613744565b5b6000613a30848285016139f7565b91505092915050565b600081519050919050565b600082825260208201905092915050565b6000819050602082019050919050565b6000613a7183836137b1565b60208301905092915050565b6000602082019050919050565b6000613a9582613a39565b613a9f8185613a44565b9350613aaa83613a55565b8060005b83811015613adb578151613ac28882613a65565b9750613acd83613a7d565b925050600181019050613aae565b5085935050505092915050565b60006020820190508181036000830152613b028184613a8a565b905092915050565b61012082016000820151613b2160008501826137b1565b506020820151613b3460208501826137b1565b506040820151613b4760408501826137b1565b506060820151613b5a60608501826137f2565b506080820151613b6d60808501826137f2565b5060a0820151613b8060a08501826137f2565b5060c0820151613b9360c08501826137b1565b5060e0820151613ba660e08501826137b1565b50610100820151613bbb6101008501826137b1565b50505050565b600061012082019050613bd76000830184613b0a565b92915050565b600080fd5b600080fd5b7f4e487b7100000000000000000000000000000000000000000000000000000000600052604160045260246000fd5b613c1f82613847565b810181811067ffffffffffffffff82111715613c3e57613c3d613be7565b5b80604052505050565b6000613c5161373a565b9050613c5d8282613c16565b919050565b600067ffffffffffffffff821115613c7d57613c7c613be7565b5b613c8682613847565b9050602081019050919050565b82818337600083830152505050565b6000613cb5613cb084613c62565b613c47565b905082815260208101848484011115613cd157613cd0613be2565b5b613cdc848285613c93565b509392505050565b600082601f830112613cf957613cf8613bdd565b5b8135613d09848260208601613ca2565b91505092915050565b600060208284031215613d2857613d27613744565b5b600082013567ffffffffffffffff811115613d4657613d45613749565b5b613d5284828501613ce4565b91505092915050565b60008060408385031215613d7257613d71613744565b5b6000613d808582860161376f565b9250506020613d91858286016139f7565b9150509250929050565b613da481613891565b82525050565b6000602082019050613dbf6000830184613d9b565b92915050565b60008060408385031215613ddc57613ddb613744565b5b6000613dea8582860161376f565b9250506020613dfb8582860161376f565b9150509250929050565b613e0e8161374e565b82525050565b6000602082019050613e296000830184613e05565b92915050565b60008060408385031215613e4657613e45613744565b5b6000613e54858286016139f7565b9250506020613e658582860161376f565b9150509250929050565b613e78816137e0565b82525050565b600082825260208201905092915050565b6000613e9a82613801565b613ea48185613e7e565b9350613eb481856020860161381d565b613ebd81613847565b840191505092915050565b600060c082019050613edd6000830189613e05565b613eea6020830188613e05565b613ef76040830187613e6f565b8181036060830152613f098186613e8f565b9050613f186080830185613e05565b613f2560a0830184613e05565b979650505050505050565b600060c083016000830151613f4860008601826137b1565b506020830151613f5b60208601826137b1565b506040830151613f6e60408601826137f2565b5060608301518482036060860152613f868282613858565b9150506080830151613f9b60808601826137b1565b5060a0830151613fae60a08601826137b1565b508091505092915050565b60006020820190508181036000830152613fd38184613f30565b905092915050565b600061012082019050613ff1600083018c613e05565b613ffe602083018b613e05565b61400b604083018a613e05565b6140186060830189613e6f565b6140256080830188613e6f565b61403260a0830187613e6f565b61403f60c0830186613e05565b61404c60e0830185613e05565b61405a610100830184613e05565b9a9950505050505050505050565b60006101808201905061407e600083018f613e05565b61408b602083018e613e6f565b818103604083015261409d818d613e8f565b905081810360608301526140b1818c613e8f565b90506140c0608083018b613e05565b6140cd60a083018a613e05565b6140da60c0830189613e05565b81810360e08301526140ec8188613e8f565b90506140fc610100830187613d9b565b61410a610120830186613e05565b614118610140830185613e05565b614126610160830184613e05565b9d9c50505050505050505050505050565b600060208201905061414c6000830184613e6f565b92915050565b60008060008060008060c0878903121561416f5761416e613744565b5b600087013567ffffffffffffffff81111561418d5761418c613749565b5b61419989828a01613ce4565b965050602087013567ffffffffffffffff8111156141ba576141b9613749565b5b6141c689828a01613ce4565b95505060406141d789828a0161376f565b94505060606141e889828a0161376f565b93505060806141f989828a0161376f565b92505060a087013567ffffffffffffffff81111561421a57614219613749565b5b61422689828a01613ce4565b9150509295509295509295565b600081519050919050565b600082825260208201905092915050565b6000819050602082019050919050565b600061426b83836137f2565b60208301905092915050565b6000602082019050919050565b600061428f82614233565b614299818561423e565b93506142a48361424f565b8060005b838110156142d55781516142bc888261425f565b97506142c783614277565b9250506001810190506142a8565b5085935050505092915050565b600060408201905081810360008301526142fc8185614284565b905081810360208301526143108184613a8a565b90509392505050565b7f5461736b20646f6573206e6f7420657869737400000000000000000000000000600082015250565b600061434f601383613e7e565b915061435a82614319565b602082019050919050565b6000602082019050818103600083015261437e81614342565b9050919050565b7f5461736b206973206e6f74206163746976650000000000000000000000000000600082015250565b60006143bb601283613e7e565b91506143c682614385565b602082019050919050565b600060208201905081810360008301526143ea816143ae565b9050919050565b7f416c72656164792061636365707465642074686973207461736b000000000000600082015250565b6000614427601a83613e7e565b9150614432826143f1565b602082019050919050565b600060208201905081810360008301526144568161441a565b9050919050565b7f4e487b7100000000000000000000000000000000000000000000000000000000600052601160045260246000fd5b60006144978261374e565b91507fffffffffffffffffffffffffffffffffffffffffffffffffffffffffffffffff82036144c9576144c861445d565b5b600182019050919050565b7f4e487b7100000000000000000000000000000000000000000000000000000000600052602260045260246000fd5b6000600282049050600182168061451b57607f821691505b60208210810361452e5761452d6144d4565b5b50919050565b60008190508160005260206000209050919050565b60006020601f8301049050919050565b600082821b905092915050565b6000600883026145967fffffffffffffffffffffffffffffffffffffffffffffffffffffffffffffffff82614559565b6145a08683614559565b95508019841693508086168417925050509392505050565b6000819050919050565b60006145dd6145d86145d38461374e565b6145b8565b61374e565b9050919050565b6000819050919050565b6145f7836145c2565b61460b614603826145e4565b848454614566565b825550505050565b600090565b614620614613565b61462b8184846145ee565b505050565b5b8181101561464f57614644600082614618565b600181019050614631565b5050565b601f8211156146945761466581614534565b61466e84614549565b8101602085101561467d578190505b61469161468985614549565b830182614630565b50505b505050565b600082821c905092915050565b60006146b760001984600802614699565b1980831691505092915050565b60006146d083836146a6565b9150826002028217905092915050565b6146e982613801565b67ffffffffffffffff81111561470257614701613be7565b5b61470c8254614503565b614717828285614653565b600060209050601f83116001811461474a5760008415614738578287015190505b61474285826146c4565b8655506147aa565b601f19841661475886614534565b60005b828110156147805784890151825560018201915060208501945060208101905061475b565b8683101561479d5784890151614799601f8916826146a6565b8355505b6001600288020188555050505b505050505050565b600081905092915050565b60006147c882613801565b6147d281856147b2565b93506147e281856020860161381d565b80840191505092915050565b60006147fa82846147bd565b915081905092915050565b6000602082019050818103600083015261481f8184613e8f565b905092915050565b7f4e487b7100000000000000000000000000000000000000000000000000000000600052603260045260246000fd5b7f507572636861736520646f6573206e6f74206578697374000000000000000000600082015250565b600061488c601783613e7e565b915061489782614856565b602082019050919050565b600060208201905081810360008301526148bb8161487f565b9050919050565b7f4e6f74207461736b206f776e6572000000000000000000000000000000000000600082015250565b60006148f8600e83613e7e565b9150614903826148c2565b602082019050919050565b60006020820190508181036000830152614927816148eb565b9050919050565b7f5461736b20616c72656164792064656163746976617465640000000000000000600082015250565b6000614964601883613e7e565b915061496f8261492e565b602082019050919050565b6000602082019050818103600083015261499381614957565b9050919050565b600081905092915050565b50565b60006149b560008361499a565b91506149c0826149a5565b600082019050919050565b60006149d6826149a8565b9150819050919050565b7f4661696c656420746f20726566756e6420626f6e757320706f6f6c0000000000600082015250565b6000614a16601b83613e7e565b9150614a21826149e0565b602082019050919050565b60006020820190508181036000830152614a4581614a09565b9050919050565b7f496e76616c696420726566657272616c20636f64650000000000000000000000600082015250565b6000614a82601583613e7e565b9150614a8d82614a4c565b602082019050919050565b60006020820190508181036000830152614ab181614a75565b9050919050565b7f496e636f7272656374207061796d656e7420616d6f756e740000000000000000600082015250565b6000614aee601883613e7e565b9150614af982614ab8565b602082019050919050565b60006020820190508181036000830152614b1d81614ae1565b9050919050565b6000614b2f8261374e565b9150614b3a8361374e565b9250828202614b488161374e565b91508282048414831517614b5f57614b5e61445d565b5b5092915050565b7f4e487b7100000000000000000000000000000000000000000000000000000000600052601260045260246000fd5b6000614ba08261374e565b9150614bab8361374e565b925082614bbb57614bba614b66565b5b828204905092915050565b7f496e73756666696369656e7420626f6e757320706f6f6c000000000000000000600082015250565b6000614bfc601783613e7e565b9150614c0782614bc6565b602082019050919050565b60006020820190508181036000830152614c2b81614bef565b9050919050565b6000614c3d8261374e565b9150614c488361374e565b9250828203905081811115614c6057614c5f61445d565b5b92915050565b7f4661696c656420746f2073656e6420636f6d6d697373696f6e20746f2070726f60008201527f6d6f746572000000000000000000000000000000000000000000000000000000602082015250565b6000614cc2602583613e7e565b9150614ccd82614c66565b604082019050919050565b60006020820190508181036000830152614cf181614cb5565b9050919050565b7f4661696c656420746f2073656e64207061796d656e7420746f2061647665727460008201527f6973657200000000000000000000000000000000000000000000000000000000602082015250565b6000614d54602483613e7e565b9150614d5f82614cf8565b604082019050919050565b60006020820190508181036000830152614d8381614d47565b9050919050565b600060a082019050614d9f6000830188613e6f565b614dac6020830187613e6f565b614db96040830186613e6f565b614dc66060830185613e05565b614dd36080830184613e05565b9695505050505050565b7f526566657272616c20646f6573206e6f74206578697374000000000000000000600082015250565b6000614e13601783613e7e565b9150614e1e82614ddd565b602082019050919050565b60006020820190508181036000830152614e4281614e06565b9050919050565b7f5469746c65206c656e67746820696e76616c6964000000000000000000000000600082015250565b6000614e7f601483613e7e565b9150614e8a82614e49565b602082019050919050565b60006020820190508181036000830152614eae81614e72565b9050919050565b7f4465736372697074696f6e20746f6f206c6f6e67000000000000000000000000600082015250565b6000614eeb601483613e7e565b9150614ef682614eb5565b602082019050919050565b60006020820190508181036000830152614f1a81614ede565b9050919050565b7f50726f64756374207072696365206d757374206265206772656174657220746860008201527f616e203000000000000000000000000000000000000000000000000000000000602082015250565b6000614f7d602483613e7e565b9150614f8882614f21565b604082019050919050565b60006020820190508181036000830152614fac81614f70565b9050919050565b7f496e76616c696420636f6d6d697373696f6e2072617465000000000000000000600082015250565b6000614fe9601783613e7e565b9150614ff482614fb3565b602082019050919050565b6000602082019050818103600083015261501881614fdc565b9050919050565b7f426f6e757320706f6f6c206d7573742062652067726561746572207468616e2060008201527f3000000000000000000000000000000000000000000000000000000000000000602082015250565b600061507b602183613e7e565b91506150868261501f565b604082019050919050565b600060208201905081810360008301526150aa8161506e565b9050919050565b7f496e73756666696369656e7420626f6e757320706f6f6c207061796d656e7400600082015250565b60006150e7601f83613e7e565b91506150f2826150b1565b602082019050919050565b60006020820190508181036000830152615116816150da565b9050919050565b600060808201905081810360008301526151378187613e8f565b90506151466020830186613e05565b6151536040830185613e05565b6151606060830184613e05565b95945050505050565b60006151748261374e565b915061517f8361374e565b92508282019050808211156151975761519661445d565b5b92915050565b7f416d6f756e74206d7573742062652067726561746572207468616e2030000000600082015250565b60006151d3601d83613e7e565b91506151de8261519d565b602082019050919050565b60006020820190508181036000830152615202816151c6565b9050919050565b60008160601b9050919050565b600061522182615209565b9050919050565b600061523382615216565b9050919050565b61524b615246826137e0565b615228565b82525050565b6000819050919050565b61526c6152678261374e565b615251565b82525050565b600061527e828661523a565b60148201915061528e828561525b565b60208201915061529e828461525b565b602082019150819050949350505050565b600060ff82169050919050565b60006152c7826152af565b91506152d2836152af565b9250826152e2576152e1614b66565b5b82820690509291505056fe303132333435363738394142434445464748494a4b4c4d4e4f505152535455565758595a6162636465666768696a6b6c6d6e6f707172737475767778797aa2646970667358221220403f423134820eaf3412d00efa287e333a855dd89097bd804c19f42111d0287d64736f6c634300081c0033",
  "linkReferences": {},
  "deployedLinkReferences": {}
}